:100000000C9446000C9465000C9465000C946500FB
:100010000C9465000C9465000C9465000C946500CC
:100020000C9465000C9465000C9465000C946500BC
:100030000C9465000C94B5000C9465000C9465005C
:100040000C9465000C9465000C9465000C9465009C
:100050000C9465000C9465000C9465000C9465008C
:100060000C9465000C9465000C9465000C9465007C
:100070000C9465000C9465000C9465000C9465006C
:100080000C9465000C9465000C94650011241FBE4F
:10009000CFEFD0E4DEBFCDBF11E0A0E0B1E0E4E0FF
:1000A000F9E000E00BBF02C007900D92A231B1074A
:1000B000D9F721E0A2E1B1E001C01D92A832B20758
:1000C000E1F70E9461030C9480040C940000CF932C
:1000D000DF93CDB7DEB781E890E02BE0FC01208311
:1000E00088E890E02DE730E0FC01318320838FE643
:1000F00090E022E0FC01208384E890E0FC01118282
:1001000010828091000190910101A0910201B091B3
:1001100003018093130190931401A0931501B093F0
:1001200016018FE590E02FE530E0F901208120688D
:10013000FC0120830000DF91CF910895CF93DF93DE
:10014000CDB7DEB781E890E0FC0110820000DF91BE
:10015000CF910895CF93DF93CDB7DEB781E0809341
:1001600012010000DF91CF9108951F920F9200902D
:100170005F000F92112400905B000F922F933F932A
:100180004F935F936F937F938F939F93AF93BF939F
:10019000EF93FF93CF93DF93CDB7DEB78091130139
:1001A00090911401A0911501B09116010197A10938
:1001B000B1098093130190931401A0931501B0939A
:1001C00016018091130190911401A0911501B09135
:1001D0001601892B8A2B8B2B91F40E94AA00809107
:1001E000000190910101A0910201B091030180935F
:1001F000130190931401A0931501B0931601000010
:10020000DF91CF91FF91EF91BF91AF919F918F912E
:100210007F916F915F914F913F912F910F9000923D
:100220005B000F9000925F000F901F901895CF9386
:10023000DF9300D000D0CDB7DEB769837A838B839C
:100240009C8389819A81AB81BC81809300019093CA
:100250000101A0930201B0930301809100019091EC
:100260000101A0910201B0910301809313019093C9
:100270001401A0931501B093160100000F900F9088
:100280000F900F90DF91CF910895CF93DF9300D01F
:100290001F92CDB7DEB789837B836A8389818A30D9
:1002A00031F48A819B81BC018DE00E94450180EC84
:1002B00090E0FC018081882F90E080729927892B43
:1002C000B1F386EC90E02981FC01208380E090E08E
:1002D0000F900F900F90DF91CF910895CF93DF9300
:1002E000CDB7DEB780912001909121018130910539
:1002F00069F08130910518F0029779F015C081E01E
:1003000090E0909321018093200112C082E090E060
:1003100090932101809320010BC081E090E09093A5
:1003200021018093200104C010922101109220012C
:1003300080912001909121018130910519F002975F
:1003400029F007C088E08093170103C010921701BD
:1003500000000000DF91CF910895CF93DF93CDB7D8
:10036000DEB780912601909127018130910581F0BF
:100370008130910530F08230910589F00397B1F01A
:100380001CC081E090E0909327018093260119C062
:1003900082E090E0909327018093260112C083E0D1
:1003A00090E090932701809326010BC081E090E0BC
:1003B000909327018093260104C010922701109288
:1003C000260180912601909127018230910551F0FC
:1003D0008330910559F0019709F00CC081E08093BA
:1003E000180108C082E08093180104C084E0809363
:1003F000180100000000DF91CF910895CF93DF93A3
:10040000CDB7DEB780911E0190911F01009719F0C2
:10041000019741F00EC081E090E090931F0180931E
:100420001E010BC081E090E090931F0180931E019C
:1004300004C010921F0110921E0180911E01909124
:100440001F01019709F00DC085E290E0309118017D
:1004500020911701322B20911901232BFC012083BD
:1004600000000000DF91CF910895CF93DF931F929A
:10047000CDB7DEB780E290E0FC0180818470898393
:1004800080912201909123018130910569F08130A2
:10049000910518F00297E1F02FC081E090E0909371
:1004A00023018093220130C08981882339F081E0C3
:1004B00090E0909323018093220123C089818823B7
:1004C00001F582E090E0909323018093220119C00E
:1004D0008981882339F482E090E09093230180930E
:1004E000220111C08981882371F081E090E090930E
:1004F00023018093220107C0109223011092220150
:1005000003C0000001C000008091220190912301EE
:100510008130910519F0029721F012C01092190153
:100520000FC080911901882321F480E18093190183
:1005300006C080911901803111F410921901000058
:1005400000000F90DF91CF910895CF93DF9300D0FB
:10055000CDB7DEB780E290E0FC01808181708983B5
:1005600080E290E0FC01808182708A838091240186
:100570009091250181309105F1F08130910540F095
:100580008230910509F43FC0039709F443C049C084
:1005900082E090E0A0E0B0E080931A0190931B010C
:1005A000A0931C01B0931D0181E090E09093250180
:1005B000809324013CC08981882351F08A8188235B
:1005C00039F081E090E090932501809324011AC0D6
:1005D0008981882351F08A81882339F483E090E06F
:1005E00090932501809324010DC089818823F1F423
:1005F0008A818823D9F082E090E09093250180934E
:10060000240114C013C081E090E0909325018093F1
:1006100024010DC081E090E0909325018093240196
:1006200006C0109225011092240101C000008091A3
:100630002401909125018230910531F0833091059C
:10064000B9F00197A9F137C080911A0190911B016F
:10065000A0911C01B0911D010196A11DB11D8093B7
:100660001A0190931B01A0931C01B0931D0123C09C
:1006700080911A0190911B01A0911C01B0911D0164
:100680000397A105B105B4F080911A0190911B0167
:10069000A0911C01B0911D010197A109B10980939E
:1006A0001A0190931B01A0931C01B0931D0102C07D
:1006B000000001C0000000000F900F90DF91CF916B
:1006C0000895CF93DF93CDB7DEB768970FB6F89450
:1006D000DEBF0FBECDBF84E290E02FEFFC01208390
:1006E00085E290E0FC01108281E290E0FC01108242
:1006F00082E290E02FEFFC01208310922101109202
:100700002001109227011092260110921F011092D1
:100710001E011092230110922201109225011092C5
:10072000240188EE93E0A0E0B0E089839A83AB8354
:10073000BC838CE291E0A0E0B0E08D839E83AF8328
:10074000B88781E090E0A0E0B0E089879A87AB8726
:10075000BC8780911A0190911B01A0911C01B0915E
:100760001D018D879E87AF87B88B81E090E0A0E068
:10077000B0E0898B9A8BAB8BBC8B81E090E0A0E0E2
:10078000B0E08D8B9E8BAF8BB88F8D899E89AF89A2
:10079000B88DBC01CD010E9417010E9467008981BC
:1007A0009A81AB81BC81883E9340A105B10530F0B0
:1007B0000E946E0119821A821B821C828D819E8189
:1007C000AF81B8858C329140A105B10530F00E940F
:1007D000AD011D821E821F82188689859A85AB8590
:1007E000BC85892B8A2B8B2B31F00E94FE01198648
:1007F0001A861B861C8680911A0190911B01A0917C
:100800001C01B0911D019C01AD018D859E85AF85B8
:10081000B88982179307A407B50730F00E94350204
:100820001D861E861F86188A89899A89AB89BC898C
:10083000892B8A2B8B2B31F00E94A502198A1A8AE8
:100840001B8A1C8A0000809112018823E1F3109218
:10085000120129813A814B815C818D899E89AF8902
:10086000B88D820F931FA41FB51F89839A83AB8312
:10087000BC832D813E814F8158858D899E89AF89AA
:10088000B88D820F931FA41FB51F8D839E83AF83E6
:10089000B88729853A854B855C858D899E89AF8986
:1008A000B88D820F931FA41FB51F89879A87AB87C6
:1008B000BC8780911A0190911B01A0911C01B091FD
:1008C0001D019C01AD018D859E85AF85B889820F84
:1008D000931FA41FB51F8D879E87AF87B88B29896B
:1008E0003A894B895C898D899E89AF89B88D820F41
:1008F000931FA41FB51F898B9A8BAB8BBC8B4FCFDB
:04090000F894FFCF99
:10090400010000000000000200000000450100009A
:020914000000E1
:00000001FF
